{
  "contractName": "Blog",
  "abi": [
    {
      "inputs": [
        {
          "internalType": "string",
          "name": "_name",
          "type": "string"
        }
      ],
      "stateMutability": "nonpayable",
      "type": "constructor"
    },
    {
      "anonymous": false,
      "inputs": [
        {
          "indexed": false,
          "internalType": "uint256",
          "name": "id",
          "type": "uint256"
        },
        {
          "indexed": false,
          "internalType": "string",
          "name": "title",
          "type": "string"
        },
        {
          "indexed": false,
          "internalType": "string",
          "name": "hash",
          "type": "string"
        }
      ],
      "name": "PostCreated",
      "type": "event"
    },
    {
      "anonymous": false,
      "inputs": [
        {
          "indexed": false,
          "internalType": "uint256",
          "name": "id",
          "type": "uint256"
        },
        {
          "indexed": false,
          "internalType": "string",
          "name": "title",
          "type": "string"
        },
        {
          "indexed": false,
          "internalType": "string",
          "name": "hash",
          "type": "string"
        },
        {
          "indexed": false,
          "internalType": "bool",
          "name": "published",
          "type": "bool"
        }
      ],
      "name": "PostUpdated",
      "type": "event"
    },
    {
      "inputs": [],
      "name": "name",
      "outputs": [
        {
          "internalType": "string",
          "name": "",
          "type": "string"
        }
      ],
      "stateMutability": "view",
      "type": "function"
    },
    {
      "inputs": [],
      "name": "owner",
      "outputs": [
        {
          "internalType": "address",
          "name": "",
          "type": "address"
        }
      ],
      "stateMutability": "view",
      "type": "function"
    },
    {
      "inputs": [
        {
          "internalType": "string",
          "name": "_name",
          "type": "string"
        }
      ],
      "name": "updateName",
      "outputs": [],
      "stateMutability": "nonpayable",
      "type": "function"
    },
    {
      "inputs": [
        {
          "internalType": "address",
          "name": "newowner",
          "type": "address"
        }
      ],
      "name": "transferOwnership",
      "outputs": [],
      "stateMutability": "nonpayable",
      "type": "function"
    },
    {
      "inputs": [
        {
          "internalType": "string",
          "name": "hash",
          "type": "string"
        }
      ],
      "name": "fetchPost",
      "outputs": [
        {
          "components": [
            {
              "internalType": "uint256",
              "name": "id",
              "type": "uint256"
            },
            {
              "internalType": "string",
              "name": "title",
              "type": "string"
            },
            {
              "internalType": "string",
              "name": "content",
              "type": "string"
            },
            {
              "internalType": "bool",
              "name": "published",
              "type": "bool"
            }
          ],
          "internalType": "struct Blog.Post",
          "name": "",
          "type": "tuple"
        }
      ],
      "stateMutability": "view",
      "type": "function"
    },
    {
      "inputs": [
        {
          "internalType": "string",
          "name": "title",
          "type": "string"
        },
        {
          "internalType": "string",
          "name": "hash",
          "type": "string"
        }
      ],
      "name": "createPost",
      "outputs": [],
      "stateMutability": "nonpayable",
      "type": "function"
    },
    {
      "inputs": [
        {
          "internalType": "uint256",
          "name": "postId",
          "type": "uint256"
        },
        {
          "internalType": "string",
          "name": "title",
          "type": "string"
        },
        {
          "internalType": "string",
          "name": "hash",
          "type": "string"
        },
        {
          "internalType": "bool",
          "name": "published",
          "type": "bool"
        }
      ],
      "name": "updatePost",
      "outputs": [],
      "stateMutability": "nonpayable",
      "type": "function"
    },
    {
      "inputs": [],
      "name": "fetchPosts",
      "outputs": [
        {
          "components": [
            {
              "internalType": "uint256",
              "name": "id",
              "type": "uint256"
            },
            {
              "internalType": "string",
              "name": "title",
              "type": "string"
            },
            {
              "internalType": "string",
              "name": "content",
              "type": "string"
            },
            {
              "internalType": "bool",
              "name": "published",
              "type": "bool"
            }
          ],
          "internalType": "struct Blog.Post[]",
          "name": "",
          "type": "tuple[]"
        }
      ],
      "stateMutability": "view",
      "type": "function"
    }
  ],
  "bytecode": "0x60806040523480156200001157600080fd5b5060405162001964380380620019648339818101604052810190620000379190620001ba565b80600090805190602001906200004f92919062000098565b5033600160006101000a81548173ffffffffffffffffffffffffffffffffffffffff021916908373ffffffffffffffffffffffffffffffffffffffff1602179055505062000330565b828054620000a6906200029c565b90600052602060002090601f016020900481019282620000ca576000855562000116565b82601f10620000e557805160ff191683800117855562000116565b8280016001018555821562000116579182015b8281111562000115578251825591602001919060010190620000f8565b5b50905062000125919062000129565b5090565b5b80821115620001445760008160009055506001016200012a565b5090565b60006200015f620001598462000233565b620001ff565b9050828152602081018484840111156200017857600080fd5b6200018584828562000266565b509392505050565b600082601f8301126200019f57600080fd5b8151620001b184826020860162000148565b91505092915050565b600060208284031215620001cd57600080fd5b600082015167ffffffffffffffff811115620001e857600080fd5b620001f6848285016200018d565b91505092915050565b6000604051905081810181811067ffffffffffffffff8211171562000229576200022862000301565b5b8060405250919050565b600067ffffffffffffffff82111562000251576200025062000301565b5b601f19601f8301169050602081019050919050565b60005b838110156200028657808201518184015260208101905062000269565b8381111562000296576000848401525b50505050565b60006002820490506001821680620002b557607f821691505b60208210811415620002cc57620002cb620002d2565b5b50919050565b7f4e487b7100000000000000000000000000000000000000000000000000000000600052602260045260246000fd5b7f4e487b7100000000000000000000000000000000000000000000000000000000600052604160045260246000fd5b61162480620003406000396000f3fe608060405234801561001057600080fd5b50600436106100a5576000357c0100000000000000000000000000000000000000000000000000000000900480638da5cb5b116100785780638da5cb5b14610130578063abaddd7f1461014e578063cd349fe91461016c578063f2fde38b14610188576100a5565b806306fdde03146100aa578063392338f5146100c857806344828659146100e457806384da92a714610114575b600080fd5b6100b26101a4565b6040516100bf9190611202565b60405180910390f35b6100e260048036038101906100dd9190610e64565b610232565b005b6100fe60048036038101906100f99190610e23565b610443565b60405161010b9190611224565b60405180910390f35b61012e60048036038101906101299190610e23565b6105c4565b005b610138610638565b60405161014591906111c5565b60405180910390f35b61015661065e565b60405161016391906111e0565b60405180910390f35b61018660048036038101906101819190610ed0565b6108e7565b005b6101a2600480360381019061019d9190610dfa565b610b37565b005b600080546101b190611490565b80601f01602080910402602001604051908101604052809291908181526020018280546101dd90611490565b801561022a5780601f106101ff5761010080835404028352916020019161022a565b820191906000526020600020905b81548152906001019060200180831161020d57829003601f168201915b505050505081565b600160009054906101000a900473ffffffffffffffffffffffffffffffffffffffff1673ffffffffffffffffffffffffffffffffffffffff163373ffffffffffffffffffffffffffffffffffffffff161461028c57600080fd5b600081511161029a57600080fd5b60008251116102a857600080fd5b600073ffffffffffffffffffffffffffffffffffffffff163373ffffffffffffffffffffffffffffffffffffffff1614156102e257600080fd5b6102ec6002610bd5565b60006102f86002610beb565b9050600060036000838152602001908152602001600020905081816000018190555083816001019080519060200190610332929190610bf9565b508281600201908051906020019061034b929190610bf9565b5060018160030160006101000a81548160ff0219169083151502179055508060048460405161037a91906111ae565b90815260200160405180910390206000820154816000015560018201816001019080546103a690611490565b6103b1929190610c7f565b5060028201816002019080546103c690611490565b6103d1929190610c7f565b506003820160009054906101000a900460ff168160030160006101000a81548160ff0219169083151502179055509050507fe6851f0b99a9d86e5d68a97f65218980851216ce297f789c6b6b7e82ca1d90c882858560405161043593929190611246565b60405180910390a150505050565b61044b610d0c565b60048260405161045b91906111ae565b90815260200160405180910390206040518060800160405290816000820154815260200160018201805461048e90611490565b80601f01602080910402602001604051908101604052809291908181526020018280546104ba90611490565b80156105075780601f106104dc57610100808354040283529160200191610507565b820191906000526020600020905b8154815290600101906020018083116104ea57829003601f168201915b5050505050815260200160028201805461052090611490565b80601f016020809104026020016040519081016040528092919081815260200182805461054c90611490565b80156105995780601f1061056e57610100808354040283529160200191610599565b820191906000526020600020905b81548152906001019060200180831161057c57829003601f168201915b505050505081526020016003820160009054906101000a900460ff1615151515815250509050919050565b600160009054906101000a900473ffffffffffffffffffffffffffffffffffffffff1673ffffffffffffffffffffffffffffffffffffffff163373ffffffffffffffffffffffffffffffffffffffff161461061e57600080fd5b8060009080519060200190610634929190610bf9565b5050565b600160009054906101000a900473ffffffffffffffffffffffffffffffffffffffff1681565b6060600061066c6002610beb565b90506000808267ffffffffffffffff8111156106b1577f4e487b7100000000000000000000000000000000000000000000000000000000600052604160045260246000fd5b6040519080825280602002602001820160405280156106ea57816020015b6106d7610d0c565b8152602001906001900390816106cf5790505b50905060005b838110156108dd57600060018261070791906113b0565b90506000600360008381526020019081526020016000209050806040518060800160405290816000820154815260200160018201805461074690611490565b80601f016020809104026020016040519081016040528092919081815260200182805461077290611490565b80156107bf5780601f10610794576101008083540402835291602001916107bf565b820191906000526020600020905b8154815290600101906020018083116107a257829003601f168201915b505050505081526020016002820180546107d890611490565b80601f016020809104026020016040519081016040528092919081815260200182805461080490611490565b80156108515780601f1061082657610100808354040283529160200191610851565b820191906000526020600020905b81548152906001019060200180831161083457829003601f168201915b505050505081526020016003820160009054906101000a900460ff1615151515815250508486815181106108ae577f4e487b7100000000000000000000000000000000000000000000000000000000600052603260045260246000fd5b60200260200101819052506001856108c691906113b0565b9450505080806108d5906114c2565b9150506106f0565b5080935050505090565b600160009054906101000a900473ffffffffffffffffffffffffffffffffffffffff1673ffffffffffffffffffffffffffffffffffffffff163373ffffffffffffffffffffffffffffffffffffffff161461094157600080fd5b60008411801561095a57506109566002610beb565b8411155b61096357600080fd5b600060036000868152602001908152602001600020905083816001019080519060200190610992929190610bf9565b50828160020190805190602001906109ab929190610bf9565b50818160030160006101000a81548160ff021916908315150217905550806004846040516109d991906111ae565b9081526020016040518091039020600082015481600001556001820181600101908054610a0590611490565b610a10929190610c7f565b506002820181600201908054610a2590611490565b610a30929190610c7f565b506003820160009054906101000a900460ff168160030160006101000a81548160ff0219169083151502179055509050508060036000878152602001908152602001600020600082015481600001556001820181600101908054610a9390611490565b610a9e929190610c7f565b506002820181600201908054610ab390611490565b610abe929190610c7f565b506003820160009054906101000a900460ff168160030160006101000a81548160ff0219169083151502179055509050507f9f8eb93fc073102bbd3072664634ab200707a4f11d94aace9cc8d0e4d019eff58160000154858585604051610b28949392919061128b565b60405180910390a15050505050565b600160009054906101000a900473ffffffffffffffffffffffffffffffffffffffff1673ffffffffffffffffffffffffffffffffffffffff163373ffffffffffffffffffffffffffffffffffffffff1614610b9157600080fd5b80600160006101000a81548173ffffffffffffffffffffffffffffffffffffffff021916908373ffffffffffffffffffffffffffffffffffffffff16021790555050565b6001816000016000828254019250508190555050565b600081600001549050919050565b828054610c0590611490565b90600052602060002090601f016020900481019282610c275760008555610c6e565b82601f10610c4057805160ff1916838001178555610c6e565b82800160010185558215610c6e579182015b82811115610c6d578251825591602001919060010190610c52565b5b509050610c7b9190610d36565b5090565b828054610c8b90611490565b90600052602060002090601f016020900481019282610cad5760008555610cfb565b82601f10610cbe5780548555610cfb565b82800160010185558215610cfb57600052602060002091601f016020900482015b82811115610cfa578254825591600101919060010190610cdf565b5b509050610d089190610d36565b5090565b60405180608001604052806000815260200160608152602001606081526020016000151581525090565b5b80821115610d4f576000816000905550600101610d37565b5090565b6000610d66610d618461130f565b6112de565b905082815260208101848484011115610d7e57600080fd5b610d8984828561144e565b509392505050565b600081359050610da0816115a9565b92915050565b600081359050610db5816115c0565b92915050565b600082601f830112610dcc57600080fd5b8135610ddc848260208601610d53565b91505092915050565b600081359050610df4816115d7565b92915050565b600060208284031215610e0c57600080fd5b6000610e1a84828501610d91565b91505092915050565b600060208284031215610e3557600080fd5b600082013567ffffffffffffffff811115610e4f57600080fd5b610e5b84828501610dbb565b91505092915050565b60008060408385031215610e7757600080fd5b600083013567ffffffffffffffff811115610e9157600080fd5b610e9d85828601610dbb565b925050602083013567ffffffffffffffff811115610eba57600080fd5b610ec685828601610dbb565b9150509250929050565b60008060008060808587031215610ee657600080fd5b6000610ef487828801610de5565b945050602085013567ffffffffffffffff811115610f1157600080fd5b610f1d87828801610dbb565b935050604085013567ffffffffffffffff811115610f3a57600080fd5b610f4687828801610dbb565b9250506060610f5787828801610da6565b91505092959194509250565b6000610f6f83836110bc565b905092915050565b610f8081611406565b82525050565b6000610f918261134f565b610f9b8185611372565b935083602082028501610fad8561133f565b8060005b85811015610fe95784840389528151610fca8582610f63565b9450610fd583611365565b925060208a01995050600181019050610fb1565b50829750879550505050505092915050565b61100481611418565b82525050565b61101381611418565b82525050565b60006110248261135a565b61102e8185611383565b935061103e81856020860161145d565b61104781611598565b840191505092915050565b600061105d8261135a565b6110678185611394565b935061107781856020860161145d565b61108081611598565b840191505092915050565b60006110968261135a565b6110a081856113a5565b93506110b081856020860161145d565b80840191505092915050565b60006080830160008301516110d46000860182611190565b50602083015184820360208601526110ec8282611019565b915050604083015184820360408601526111068282611019565b915050606083015161111b6060860182610ffb565b508091505092915050565b600060808301600083015161113e6000860182611190565b50602083015184820360208601526111568282611019565b915050604083015184820360408601526111708282611019565b91505060608301516111856060860182610ffb565b508091505092915050565b61119981611444565b82525050565b6111a881611444565b82525050565b60006111ba828461108b565b915081905092915050565b60006020820190506111da6000830184610f77565b92915050565b600060208201905081810360008301526111fa8184610f86565b905092915050565b6000602082019050818103600083015261121c8184611052565b905092915050565b6000602082019050818103600083015261123e8184611126565b905092915050565b600060608201905061125b600083018661119f565b818103602083015261126d8185611052565b905081810360408301526112818184611052565b9050949350505050565b60006080820190506112a0600083018761119f565b81810360208301526112b28186611052565b905081810360408301526112c68185611052565b90506112d5606083018461100a565b95945050505050565b6000604051905081810181811067ffffffffffffffff8211171561130557611304611569565b5b8060405250919050565b600067ffffffffffffffff82111561132a57611329611569565b5b601f19601f8301169050602081019050919050565b6000819050602082019050919050565b600081519050919050565b600081519050919050565b6000602082019050919050565b600082825260208201905092915050565b600082825260208201905092915050565b600082825260208201905092915050565b600081905092915050565b60006113bb82611444565b91506113c683611444565b9250827fffffffffffffffffffffffffffffffffffffffffffffffffffffffffffffffff038211156113fb576113fa61150b565b5b828201905092915050565b600061141182611424565b9050919050565b60008115159050919050565b600073ffffffffffffffffffffffffffffffffffffffff82169050919050565b6000819050919050565b82818337600083830152505050565b60005b8381101561147b578082015181840152602081019050611460565b8381111561148a576000848401525b50505050565b600060028204905060018216806114a857607f821691505b602082108114156114bc576114bb61153a565b5b50919050565b60006114cd82611444565b91507fffffffffffffffffffffffffffffffffffffffffffffffffffffffffffffffff821415611500576114ff61150b565b5b600182019050919050565b7f4e487b7100000000000000000000000000000000000000000000000000000000600052601160045260246000fd5b7f4e487b7100000000000000000000000000000000000000000000000000000000600052602260045260246000fd5b7f4e487b7100000000000000000000000000000000000000000000000000000000600052604160045260246000fd5b6000601f19601f8301169050919050565b6115b281611406565b81146115bd57600080fd5b50565b6115c981611418565b81146115d457600080fd5b50565b6115e081611444565b81146115eb57600080fd5b5056fea2646970667358221220dc569a59a90a7169f72c1dbddf5e8049a2e66de2b710f784e5504f3356952ca864736f6c63430008000033",
  "immutableReferences": {},
  "source": "pragma solidity ^0.8.0;\r\n\r\nimport \"@openzeppelin/contracts/utils/Counters.sol\";\r\n\r\ncontract Blog{\r\n    string public name;\r\n    address public owner;\r\n\r\n    using Counters for Counters.Counter;\r\n    Counters.Counter private _postIds;\r\n\r\n    struct Post{\r\n        uint id;\r\n        string title;\r\n        string content;\r\n        bool published;\r\n    }\r\n\r\n\r\n    /* we create lookup table via mappings for posts by id and ipfs storage hash */\r\n    mapping(uint => Post) private idToPost;\r\n    mapping(string => Post ) private hashToPost;\r\n\r\n    /* events facilitate comms btw contracts and user interface just like event list in js we can create event listeners in clients */\r\n    event PostCreated(uint id, string title, string hash);\r\n    event PostUpdated(uint id, string title, string hash, bool published);\r\n\r\n    constructor (string memory _name){\r\n        name = _name;//name of the blog assigned on deployment\r\n        owner =  msg.sender; //the owner is the address dat sends/signs d transaction on deployment of contract\r\n    }\r\n\r\n    /*function to update name of the blog. */\r\n    function updateName(string memory _name) public onlyOwner {\r\n        name = _name;\r\n    }\r\n\r\n    /*transfer ownership of the blog/contract to the newowners address */\r\n    function transferOwnership(address newowner) public onlyOwner {\r\n        owner = newowner;\r\n    }\r\n\r\n    /* to fetch a single post by the posts id */\r\n    function fetchPost (string memory hash) public view returns(Post memory){\r\n        return hashToPost[hash];\r\n    }\r\n\r\n    /*creating a new post */\r\n    function createPost (string memory title, string memory hash) public onlyOwner{\r\n        require(bytes(hash).length > 0);\r\n        require(bytes(title).length > 0);\r\n        require(msg.sender != address(0x0));\r\n\r\n        _postIds.increment();\r\n        uint postId = _postIds.current();\r\n        Post storage post = idToPost[postId];\r\n        post.id = postId;\r\n        post.title = title;\r\n        post.content = hash;\r\n        post.published = true;\r\n        hashToPost[hash] = post;\r\n        emit PostCreated(postId, title, hash);\r\n    }\r\n\r\n    function updatePost (uint postId,  string memory title, string memory hash, bool published) public onlyOwner{\r\n        require(postId > 0 && postId <= _postIds.current());\r\n\r\n        Post storage post = idToPost[postId];\r\n        post.title = title;\r\n        post.content = hash;\r\n        post.published = published;\r\n        hashToPost[hash] = post;\r\n        idToPost[postId] = post;\r\n        emit PostUpdated(post.id, title, hash, published);\r\n    }\r\n\r\n    function fetchPosts() public view returns(Post[] memory){\r\n        uint itemCount = _postIds.current();\r\n        uint currentIndex = 0;\r\n\r\n        Post[] memory posts = new Post[](itemCount);\r\n        for (uint i = 0; i < itemCount; i++) {\r\n            uint currentId = i + 1;//cant start with a zero cos counters started with 1\r\n            Post storage currentItem = idToPost[currentId];//looks up the post by the uint id\r\n            posts[currentIndex] = currentItem;//puts in the post object by there index starting from zero into the list\r\n            currentIndex += 1;//increases the index by 1 after each loop\r\n        }\r\n        return posts;\r\n    }\r\n\r\n    /*function tipPost(uint postId) public payable{\r\n        require(postId > 0 && postId <= _postIds.current());\r\n\r\n        Post storage post = idToPost[postId];\r\n        address payable dogBoy = owner;\r\n        address(dogBoy).transfer(msg.value);\r\n    }*/\r\n\r\n    /* this modifier means only the contract owner can */\r\n    /* invoke the function */\r\n    modifier onlyOwner() {\r\n      require(msg.sender == owner);\r\n    _;\r\n  }\r\n\r\n}",
  "sourcePath": "C:/Users/HP/Desktop/blockdev/smart_contracts/blog/contracts/blog.sol",
  "compiler": {
    "name": "solc",
    "version": "0.8.0+commit.c7dfd78e.Emscripten.clang"
  },
  "schemaVersion": "3.4.1",
  "updatedAt": "2022-03-26T11:16:13.712Z",
  "devdoc": {
    "kind": "dev",
    "methods": {},
    "version": 1
  },
  "userdoc": {
    "kind": "user",
    "methods": {},
    "version": 1
  }
}